{
  "_format": "hh-sol-artifact-1",
  "contractName": "Web3Marketplace",
  "sourceName": "contracts/Web3Marketplace.sol",
  "abi": [
    {
      "inputs": [],
      "stateMutability": "nonpayable",
      "type": "constructor"
    },
    {
      "anonymous": false,
      "inputs": [
        {
          "indexed": true,
          "internalType": "address",
          "name": "owner",
          "type": "address"
        },
        {
          "indexed": true,
          "internalType": "address",
          "name": "approved",
          "type": "address"
        },
        {
          "indexed": true,
          "internalType": "uint256",
          "name": "tokenId",
          "type": "uint256"
        }
      ],
      "name": "Approval",
      "type": "event"
    },
    {
      "anonymous": false,
      "inputs": [
        {
          "indexed": true,
          "internalType": "address",
          "name": "owner",
          "type": "address"
        },
        {
          "indexed": true,
          "internalType": "address",
          "name": "operator",
          "type": "address"
        },
        {
          "indexed": false,
          "internalType": "bool",
          "name": "approved",
          "type": "bool"
        }
      ],
      "name": "ApprovalForAll",
      "type": "event"
    },
    {
      "anonymous": false,
      "inputs": [
        {
          "indexed": true,
          "internalType": "uint256",
          "name": "tokenId",
          "type": "uint256"
        },
        {
          "indexed": false,
          "internalType": "address",
          "name": "seller",
          "type": "address"
        },
        {
          "indexed": false,
          "internalType": "address",
          "name": "owner",
          "type": "address"
        },
        {
          "indexed": false,
          "internalType": "uint256",
          "name": "price",
          "type": "uint256"
        },
        {
          "indexed": false,
          "internalType": "bool",
          "name": "sold",
          "type": "bool"
        }
      ],
      "name": "MarketItemCreated",
      "type": "event"
    },
    {
      "anonymous": false,
      "inputs": [
        {
          "indexed": true,
          "internalType": "address",
          "name": "from",
          "type": "address"
        },
        {
          "indexed": true,
          "internalType": "address",
          "name": "to",
          "type": "address"
        },
        {
          "indexed": true,
          "internalType": "uint256",
          "name": "tokenId",
          "type": "uint256"
        }
      ],
      "name": "Transfer",
      "type": "event"
    },
    {
      "inputs": [
        {
          "internalType": "address",
          "name": "to",
          "type": "address"
        },
        {
          "internalType": "uint256",
          "name": "tokenId",
          "type": "uint256"
        }
      ],
      "name": "approve",
      "outputs": [],
      "stateMutability": "nonpayable",
      "type": "function"
    },
    {
      "inputs": [
        {
          "internalType": "address",
          "name": "owner",
          "type": "address"
        }
      ],
      "name": "balanceOf",
      "outputs": [
        {
          "internalType": "uint256",
          "name": "",
          "type": "uint256"
        }
      ],
      "stateMutability": "view",
      "type": "function"
    },
    {
      "inputs": [
        {
          "internalType": "uint256",
          "name": "tokenId",
          "type": "uint256"
        }
      ],
      "name": "createMarketSale",
      "outputs": [],
      "stateMutability": "payable",
      "type": "function"
    },
    {
      "inputs": [
        {
          "internalType": "string",
          "name": "tokenURI",
          "type": "string"
        },
        {
          "internalType": "uint256",
          "name": "price",
          "type": "uint256"
        }
      ],
      "name": "createToken",
      "outputs": [
        {
          "internalType": "uint256",
          "name": "",
          "type": "uint256"
        }
      ],
      "stateMutability": "payable",
      "type": "function"
    },
    {
      "inputs": [],
      "name": "fetchItemsListed",
      "outputs": [
        {
          "components": [
            {
              "internalType": "uint256",
              "name": "tokenId",
              "type": "uint256"
            },
            {
              "internalType": "address payable",
              "name": "seller",
              "type": "address"
            },
            {
              "internalType": "address payable",
              "name": "owner",
              "type": "address"
            },
            {
              "internalType": "uint256",
              "name": "price",
              "type": "uint256"
            },
            {
              "internalType": "bool",
              "name": "sold",
              "type": "bool"
            }
          ],
          "internalType": "struct Web3Marketplace.MarketItem[]",
          "name": "",
          "type": "tuple[]"
        }
      ],
      "stateMutability": "view",
      "type": "function"
    },
    {
      "inputs": [
        {
          "internalType": "uint256",
          "name": "tokenId",
          "type": "uint256"
        }
      ],
      "name": "fetchItemsListedDetails",
      "outputs": [
        {
          "components": [
            {
              "internalType": "uint256",
              "name": "tokenId",
              "type": "uint256"
            },
            {
              "internalType": "address payable",
              "name": "seller",
              "type": "address"
            },
            {
              "internalType": "address payable",
              "name": "owner",
              "type": "address"
            },
            {
              "internalType": "uint256",
              "name": "price",
              "type": "uint256"
            },
            {
              "internalType": "bool",
              "name": "sold",
              "type": "bool"
            }
          ],
          "internalType": "struct Web3Marketplace.MarketItem",
          "name": "",
          "type": "tuple"
        }
      ],
      "stateMutability": "view",
      "type": "function"
    },
    {
      "inputs": [],
      "name": "fetchMarketItems",
      "outputs": [
        {
          "components": [
            {
              "internalType": "uint256",
              "name": "tokenId",
              "type": "uint256"
            },
            {
              "internalType": "address payable",
              "name": "seller",
              "type": "address"
            },
            {
              "internalType": "address payable",
              "name": "owner",
              "type": "address"
            },
            {
              "internalType": "uint256",
              "name": "price",
              "type": "uint256"
            },
            {
              "internalType": "bool",
              "name": "sold",
              "type": "bool"
            }
          ],
          "internalType": "struct Web3Marketplace.MarketItem[]",
          "name": "",
          "type": "tuple[]"
        }
      ],
      "stateMutability": "view",
      "type": "function"
    },
    {
      "inputs": [],
      "name": "fetchMyNFTs",
      "outputs": [
        {
          "components": [
            {
              "internalType": "uint256",
              "name": "tokenId",
              "type": "uint256"
            },
            {
              "internalType": "address payable",
              "name": "seller",
              "type": "address"
            },
            {
              "internalType": "address payable",
              "name": "owner",
              "type": "address"
            },
            {
              "internalType": "uint256",
              "name": "price",
              "type": "uint256"
            },
            {
              "internalType": "bool",
              "name": "sold",
              "type": "bool"
            }
          ],
          "internalType": "struct Web3Marketplace.MarketItem[]",
          "name": "",
          "type": "tuple[]"
        }
      ],
      "stateMutability": "view",
      "type": "function"
    },
    {
      "inputs": [
        {
          "internalType": "uint256",
          "name": "tokenId",
          "type": "uint256"
        }
      ],
      "name": "getApproved",
      "outputs": [
        {
          "internalType": "address",
          "name": "",
          "type": "address"
        }
      ],
      "stateMutability": "view",
      "type": "function"
    },
    {
      "inputs": [],
      "name": "getListingPrice",
      "outputs": [
        {
          "internalType": "uint256",
          "name": "",
          "type": "uint256"
        }
      ],
      "stateMutability": "view",
      "type": "function"
    },
    {
      "inputs": [
        {
          "internalType": "address",
          "name": "owner",
          "type": "address"
        },
        {
          "internalType": "address",
          "name": "operator",
          "type": "address"
        }
      ],
      "name": "isApprovedForAll",
      "outputs": [
        {
          "internalType": "bool",
          "name": "",
          "type": "bool"
        }
      ],
      "stateMutability": "view",
      "type": "function"
    },
    {
      "inputs": [],
      "name": "name",
      "outputs": [
        {
          "internalType": "string",
          "name": "",
          "type": "string"
        }
      ],
      "stateMutability": "view",
      "type": "function"
    },
    {
      "inputs": [
        {
          "internalType": "uint256",
          "name": "tokenId",
          "type": "uint256"
        }
      ],
      "name": "ownerOf",
      "outputs": [
        {
          "internalType": "address",
          "name": "",
          "type": "address"
        }
      ],
      "stateMutability": "view",
      "type": "function"
    },
    {
      "inputs": [
        {
          "internalType": "uint256",
          "name": "tokenId",
          "type": "uint256"
        },
        {
          "internalType": "uint256",
          "name": "price",
          "type": "uint256"
        }
      ],
      "name": "resellToken",
      "outputs": [],
      "stateMutability": "payable",
      "type": "function"
    },
    {
      "inputs": [
        {
          "internalType": "address",
          "name": "from",
          "type": "address"
        },
        {
          "internalType": "address",
          "name": "to",
          "type": "address"
        },
        {
          "internalType": "uint256",
          "name": "tokenId",
          "type": "uint256"
        }
      ],
      "name": "safeTransferFrom",
      "outputs": [],
      "stateMutability": "nonpayable",
      "type": "function"
    },
    {
      "inputs": [
        {
          "internalType": "address",
          "name": "from",
          "type": "address"
        },
        {
          "internalType": "address",
          "name": "to",
          "type": "address"
        },
        {
          "internalType": "uint256",
          "name": "tokenId",
          "type": "uint256"
        },
        {
          "internalType": "bytes",
          "name": "data",
          "type": "bytes"
        }
      ],
      "name": "safeTransferFrom",
      "outputs": [],
      "stateMutability": "nonpayable",
      "type": "function"
    },
    {
      "inputs": [
        {
          "internalType": "address",
          "name": "operator",
          "type": "address"
        },
        {
          "internalType": "bool",
          "name": "approved",
          "type": "bool"
        }
      ],
      "name": "setApprovalForAll",
      "outputs": [],
      "stateMutability": "nonpayable",
      "type": "function"
    },
    {
      "inputs": [
        {
          "internalType": "bytes4",
          "name": "interfaceId",
          "type": "bytes4"
        }
      ],
      "name": "supportsInterface",
      "outputs": [
        {
          "internalType": "bool",
          "name": "",
          "type": "bool"
        }
      ],
      "stateMutability": "view",
      "type": "function"
    },
    {
      "inputs": [],
      "name": "symbol",
      "outputs": [
        {
          "internalType": "string",
          "name": "",
          "type": "string"
        }
      ],
      "stateMutability": "view",
      "type": "function"
    },
    {
      "inputs": [
        {
          "internalType": "uint256",
          "name": "tokenId",
          "type": "uint256"
        }
      ],
      "name": "tokenURI",
      "outputs": [
        {
          "internalType": "string",
          "name": "",
          "type": "string"
        }
      ],
      "stateMutability": "view",
      "type": "function"
    },
    {
      "inputs": [
        {
          "internalType": "address",
          "name": "from",
          "type": "address"
        },
        {
          "internalType": "address",
          "name": "to",
          "type": "address"
        },
        {
          "internalType": "uint256",
          "name": "tokenId",
          "type": "uint256"
        }
      ],
      "name": "transferFrom",
      "outputs": [],
      "stateMutability": "nonpayable",
      "type": "function"
    },
    {
      "inputs": [
        {
          "internalType": "address",
          "name": "newOwner",
          "type": "address"
        },
        {
          "internalType": "uint256",
          "name": "tokenId",
          "type": "uint256"
        }
      ],
      "name": "transferItemsListed",
      "outputs": [],
      "stateMutability": "payable",
      "type": "function"
    },
    {
      "inputs": [
        {
          "internalType": "uint256",
          "name": "_listingPrice",
          "type": "uint256"
        }
      ],
      "name": "updateListingPrice",
      "outputs": [],
      "stateMutability": "payable",
      "type": "function"
    }
  ],
  "bytecode": "0x608060405260006009553480156200001657600080fd5b50604080518082018252601881527f57656233204d6f6d656e7473204d61726b6574706c61636500000000000000006020808301918252835180850190945260078452660576562334d4d560cc1b9084015281519192916200007b91600091620000ac565b50805162000091906001906020840190620000ac565b5050600a80546001600160a01b03191633179055506200018f565b828054620000ba9062000152565b90600052602060002090601f016020900481019282620000de576000855562000129565b82601f10620000f957805160ff191683800117855562000129565b8280016001018555821562000129579182015b82811115620001295782518255916020019190600101906200010c565b50620001379291506200013b565b5090565b5b808211156200013757600081556001016200013c565b600181811c908216806200016757607f821691505b602082108114156200018957634e487b7160e01b600052602260045260246000fd5b50919050565b612516806200019f6000396000f3fe6080604052600436106101405760003560e01c80636352211e116100b6578063ae677aa31161006f578063ae677aa314610369578063b88d4fde1461037c578063be9af5361461039c578063c87b56dd146103af578063e219fc75146103cf578063e985e9c5146103e257600080fd5b80636352211e146102b457806370a08231146102d457806372b3b620146102f45780638ae93cdb1461030757806395d89b4114610334578063a22cb4651461034957600080fd5b806312e855851161010857806312e8558514610218578063202e37401461023757806323b872dd1461024c57806342842e0e1461026c57806345f8fa801461028c57806345fa042c146102a157600080fd5b806301ffc9a71461014557806306fdde031461017a578063081812fc1461019c578063095ea7b3146101d45780630f08efe0146101f6575b600080fd5b34801561015157600080fd5b5061016561016036600461206d565b61042b565b60405190151581526020015b60405180910390f35b34801561018657600080fd5b5061018f61047d565b604051610171919061225a565b3480156101a857600080fd5b506101bc6101b73660046120fb565b61050f565b6040516001600160a01b039091168152602001610171565b3480156101e057600080fd5b506101f46101ef366004612044565b610536565b005b34801561020257600080fd5b5061020b610651565b604051610171919061220c565b34801561022457600080fd5b506009545b604051908152602001610171565b34801561024357600080fd5b5061020b6107e5565b34801561025857600080fd5b506101f4610267366004611f56565b6109b7565b34801561027857600080fd5b506101f4610287366004611f56565b6109e8565b34801561029857600080fd5b5061020b610a03565b6101f46102af366004612044565b610c41565b3480156102c057600080fd5b506101bc6102cf3660046120fb565b610d92565b3480156102e057600080fd5b506102296102ef366004611f0a565b610df2565b6102296103023660046120a5565b610e78565b34801561031357600080fd5b506103276103223660046120fb565b610ec5565b60405161017191906123df565b34801561034057600080fd5b5061018f610f2f565b34801561035557600080fd5b506101f461036436600461200a565b610f3e565b6101f46103773660046120fb565b610f4d565b34801561038857600080fd5b506101f4610397366004611f91565b610fc5565b6101f46103aa3660046120fb565b610ffd565b3480156103bb57600080fd5b5061018f6103ca3660046120fb565b611162565b6101f46103dd366004612113565b611273565b3480156103ee57600080fd5b506101656103fd366004611f24565b6001600160a01b03918216600090815260056020908152604080832093909416825291909152205460ff1690565b60006001600160e01b031982166380ac58cd60e01b148061045c57506001600160e01b03198216635b5e139f60e01b145b8061047757506301ffc9a760e01b6001600160e01b03198316145b92915050565b60606000805461048c90612448565b80601f01602080910402602001604051908101604052809291908181526020018280546104b890612448565b80156105055780601f106104da57610100808354040283529160200191610505565b820191906000526020600020905b8154815290600101906020018083116104e857829003601f168201915b5050505050905090565b600061051a82611328565b506000908152600460205260409020546001600160a01b031690565b600061054182610d92565b9050806001600160a01b0316836001600160a01b031614156105b45760405162461bcd60e51b815260206004820152602160248201527f4552433732313a20617070726f76616c20746f2063757272656e74206f776e656044820152603960f91b60648201526084015b60405180910390fd5b336001600160a01b03821614806105d057506105d081336103fd565b6106425760405162461bcd60e51b815260206004820152603d60248201527f4552433732313a20617070726f76652063616c6c6572206973206e6f7420746f60448201527f6b656e206f776e6572206f7220617070726f76656420666f7220616c6c00000060648201526084016105ab565b61064c838361138a565b505050565b6060600061065e60075490565b9050600061066b60085490565b6007546106789190612405565b90506000808267ffffffffffffffff8111156106a457634e487b7160e01b600052604160045260246000fd5b6040519080825280602002602001820160405280156106dd57816020015b6106ca611db1565b8152602001906001900390816106c25790505b50905060005b848110156107dc5730600b60006106fb8460016123ed565b81526020810191909152604001600020600201546001600160a01b031614156107ca57600061072b8260016123ed565b6000818152600b6020908152604091829020825160a0810184528154815260018201546001600160a01b039081169382019390935260028201549092169282019290925260038201546060820152600482015460ff1615156080820152855192935090918590879081106107af57634e487b7160e01b600052603260045260246000fd5b60209081029190910101526107c56001866123ed565b945050505b806107d481612483565b9150506106e3565b50949350505050565b606060006107f260075490565b905060008060005b838110156108555733600b60006108128460016123ed565b81526020810191909152604001600020600201546001600160a01b03161415610843576108406001846123ed565b92505b8061084d81612483565b9150506107fa565b5060008267ffffffffffffffff81111561087f57634e487b7160e01b600052604160045260246000fd5b6040519080825280602002602001820160405280156108b857816020015b6108a5611db1565b81526020019060019003908161089d5790505b50905060005b848110156107dc5733600b60006108d68460016123ed565b81526020810191909152604001600020600201546001600160a01b031614156109a55760006109068260016123ed565b6000818152600b6020908152604091829020825160a0810184528154815260018201546001600160a01b039081169382019390935260028201549092169282019290925260038201546060820152600482015460ff16151560808201528551929350909185908790811061098a57634e487b7160e01b600052603260045260246000fd5b60209081029190910101526109a06001866123ed565b945050505b806109af81612483565b9150506108be565b6109c133826113f8565b6109dd5760405162461bcd60e51b81526004016105ab9061226d565b61064c838383611476565b61064c83838360405180602001604052806000815250610fc5565b60606000610a1060075490565b905060008060005b83811015610aa95733600b6000610a308460016123ed565b81526020810191909152604001600020600101546001600160a01b0316148015610a84575030600b6000610a658460016123ed565b81526020810191909152604001600020600201546001600160a01b0316145b15610a9757610a946001846123ed565b92505b80610aa181612483565b915050610a18565b5060008267ffffffffffffffff811115610ad357634e487b7160e01b600052604160045260246000fd5b604051908082528060200260200182016040528015610b0c57816020015b610af9611db1565b815260200190600190039081610af15790505b50905060005b848110156107dc5733600b6000610b2a8460016123ed565b81526020810191909152604001600020600101546001600160a01b0316148015610b7e575030600b6000610b5f8460016123ed565b81526020810191909152604001600020600201546001600160a01b0316145b15610c2f576000610b908260016123ed565b6000818152600b6020908152604091829020825160a0810184528154815260018201546001600160a01b039081169382019390935260028201549092169282019290925260038201546060820152600482015460ff161515608082015285519293509091859087908110610c1457634e487b7160e01b600052603260045260246000fd5b6020908102919091010152610c2a6001866123ed565b945050505b80610c3981612483565b915050610b12565b6000818152600b60205260409020600101546001600160a01b03163314610cbe5760405162461bcd60e51b815260206004820152602b60248201527f4f6e6c79206974656d2073656c6c65722063616e20706572666f726d2074686960448201526a399037b832b930ba34b7b760a91b60648201526084016105ab565b6000818152600b60205260409020600201546001600160a01b03163014610cf75760405162461bcd60e51b81526004016105ab90612351565b6000818152600b6020526040902060018082018054336001600160a01b0319918216179091556002830180549091166001600160a01b0386161790556004909101805460ff191682179055600880549091019055610d56308383611476565b600a546009546040516001600160a01b039092169181156108fc0291906000818181858888f1935050505015801561064c573d6000803e3d6000fd5b6000818152600260205260408120546001600160a01b0316806104775760405162461bcd60e51b8152602060048201526018602482015277115490cdcc8c4e881a5b9d985b1a59081d1bdad95b88125160421b60448201526064016105ab565b60006001600160a01b038216610e5c5760405162461bcd60e51b815260206004820152602960248201527f4552433732313a2061646472657373207a65726f206973206e6f7420612076616044820152683634b21037bbb732b960b91b60648201526084016105ab565b506001600160a01b031660009081526003602052604090205490565b6000610e88600780546001019055565b6000610e9360075490565b9050610e9f33826115da565b610ea98185611765565b610eb4306001610f3e565b610ebe81846117ff565b9392505050565b610ecd611db1565b506000908152600b6020908152604091829020825160a0810184528154815260018201546001600160a01b03908116938201939093526002820154909216928201929092526003820154606082015260049091015460ff161515608082015290565b60606001805461048c90612448565b610f49338383611955565b5050565b600a546001600160a01b03163314610fc05760405162461bcd60e51b815260206004820152603060248201527f4f6e6c79206d61726b6574706c616365206f776e65722063616e20757064617460448201526f32903634b9ba34b73390383934b1b29760811b60648201526084016105ab565b600955565b610fcf33836113f8565b610feb5760405162461bcd60e51b81526004016105ab9061226d565b610ff784848484611a24565b50505050565b6000818152600b6020526040902060038101546001909101546001600160a01b0316348214611096576040805162461bcd60e51b81526020600482015260248101919091527f506c65617365207375626d6974207468652061736b696e67207072696365206960448201527f6e206f7264657220746f20636f6d706c6574652074686520707572636861736560648201526084016105ab565b6000838152600b602052604090206002810180546001600160a01b0319908116331790915560048201805460ff19166001908117909155909101805490911690556110e5600880546001019055565b6110f0303385611476565b600a546009546040516001600160a01b039092169181156108fc0291906000818181858888f1935050505015801561112c573d6000803e3d6000fd5b506040516001600160a01b038216903480156108fc02916000818181858888f19350505050158015610ff7573d6000803e3d6000fd5b606061116d82611328565b6000828152600660205260408120805461118690612448565b80601f01602080910402602001604051908101604052809291908181526020018280546111b290612448565b80156111ff5780601f106111d4576101008083540402835291602001916111ff565b820191906000526020600020905b8154815290600101906020018083116111e257829003601f168201915b50505050509050600061121d60408051602081019091526000815290565b9050805160001415611230575092915050565b81511561126257808260405160200161124a9291906121a0565b60405160208183030381529060405292505050919050565b61126b84611a57565b949350505050565b6000828152600b60205260409020600201546001600160a01b031633146112ac5760405162461bcd60e51b81526004016105ab90612351565b60095434146112cd5760405162461bcd60e51b81526004016105ab9061239b565b6000828152600b6020526040902060048101805460ff19169055600381018290556001810180546001600160a01b03199081163317909155600290910180549091163017905561131d6008611aca565b610f49333084611476565b6000818152600260205260409020546001600160a01b03166113875760405162461bcd60e51b8152602060048201526018602482015277115490cdcc8c4e881a5b9d985b1a59081d1bdad95b88125160421b60448201526064016105ab565b50565b600081815260046020526040902080546001600160a01b0319166001600160a01b03841690811790915581906113bf82610d92565b6001600160a01b03167f8c5be1e5ebec7d5bd14f71427d1e84f3dd0314c0f7b2291e5b200ac8c7c3b92560405160405180910390a45050565b60008061140483610d92565b9050806001600160a01b0316846001600160a01b0316148061144b57506001600160a01b0380821660009081526005602090815260408083209388168352929052205460ff165b8061126b5750836001600160a01b03166114648461050f565b6001600160a01b031614949350505050565b826001600160a01b031661148982610d92565b6001600160a01b0316146114af5760405162461bcd60e51b81526004016105ab9061230c565b6001600160a01b0382166115115760405162461bcd60e51b8152602060048201526024808201527f4552433732313a207472616e7366657220746f20746865207a65726f206164646044820152637265737360e01b60648201526084016105ab565b826001600160a01b031661152482610d92565b6001600160a01b03161461154a5760405162461bcd60e51b81526004016105ab9061230c565b600081815260046020908152604080832080546001600160a01b03199081169091556001600160a01b0387811680865260038552838620805460001901905590871680865283862080546001019055868652600290945282852080549092168417909155905184937fddf252ad1be2c89b69c2b068fc378daa952ba7f163c4a11628f55a4df523b3ef91a4505050565b6001600160a01b0382166116305760405162461bcd60e51b815260206004820181905260248201527f4552433732313a206d696e7420746f20746865207a65726f206164647265737360448201526064016105ab565b6000818152600260205260409020546001600160a01b0316156116955760405162461bcd60e51b815260206004820152601c60248201527f4552433732313a20746f6b656e20616c7265616479206d696e7465640000000060448201526064016105ab565b6000818152600260205260409020546001600160a01b0316156116fa5760405162461bcd60e51b815260206004820152601c60248201527f4552433732313a20746f6b656e20616c7265616479206d696e7465640000000060448201526064016105ab565b6001600160a01b038216600081815260036020908152604080832080546001019055848352600290915280822080546001600160a01b0319168417905551839291907fddf252ad1be2c89b69c2b068fc378daa952ba7f163c4a11628f55a4df523b3ef908290a45050565b6000828152600260205260409020546001600160a01b03166117e05760405162461bcd60e51b815260206004820152602e60248201527f45524337323155524953746f726167653a2055524920736574206f66206e6f6e60448201526d32bc34b9ba32b73a103a37b5b2b760911b60648201526084016105ab565b6000828152600660209081526040909120825161064c92840190611ddf565b6000811161184f5760405162461bcd60e51b815260206004820152601c60248201527f5072696365206d757374206265206174206c656173742031207765690000000060448201526064016105ab565b60095434146118705760405162461bcd60e51b81526004016105ab9061239b565b6040805160a08101825283815233602080830182815230848601818152606086018881526000608088018181528b8252600b909652979097209551865591516001860180546001600160a01b03199081166001600160a01b0393841617909155925160028701805490941691161790915593516003840155516004909201805460ff1916921515929092179091556119089184611476565b604080513381523060208201529081018290526000606082015282907fb640004f1d14576d0c209e240cad0410e0d8c0c33a09375861fbadae2588a98d9060800160405180910390a25050565b816001600160a01b0316836001600160a01b031614156119b75760405162461bcd60e51b815260206004820152601960248201527f4552433732313a20617070726f766520746f2063616c6c65720000000000000060448201526064016105ab565b6001600160a01b03838116600081815260056020908152604080832094871680845294825291829020805460ff191686151590811790915591519182527f17307eab39ab6107e8899845ad3d59bd9653f200f220920489ca2b5937696c31910160405180910390a3505050565b611a2f848484611476565b611a3b84848484611b21565b610ff75760405162461bcd60e51b81526004016105ab906122ba565b6060611a6282611328565b6000611a7960408051602081019091526000815290565b90506000815111611a995760405180602001604052806000815250610ebe565b80611aa384611c2e565b604051602001611ab49291906121a0565b6040516020818303038152906040529392505050565b805480611b195760405162461bcd60e51b815260206004820152601b60248201527f436f756e7465723a2064656372656d656e74206f766572666c6f77000000000060448201526064016105ab565b600019019055565b60006001600160a01b0384163b15611c2357604051630a85bd0160e11b81526001600160a01b0385169063150b7a0290611b659033908990889088906004016121cf565b602060405180830381600087803b158015611b7f57600080fd5b505af1925050508015611baf575060408051601f3d908101601f19168201909252611bac91810190612089565b60015b611c09573d808015611bdd576040519150601f19603f3d011682016040523d82523d6000602084013e611be2565b606091505b508051611c015760405162461bcd60e51b81526004016105ab906122ba565b805181602001fd5b6001600160e01b031916630a85bd0160e11b14905061126b565b506001949350505050565b60606000611c3b83611cd9565b600101905060008167ffffffffffffffff811115611c6957634e487b7160e01b600052604160045260246000fd5b6040519080825280601f01601f191660200182016040528015611c93576020820181803683370190505b5090508181016020015b600019016f181899199a1a9b1b9c1cb0b131b232b360811b600a86061a8153600a8504945084611ccc57611cd1565b611c9d565b509392505050565b60008072184f03e93ff9f4daa797ed6e38ed64bf6a1f0160401b8310611d185772184f03e93ff9f4daa797ed6e38ed64bf6a1f0160401b830492506040015b6d04ee2d6d415b85acef81000000008310611d44576d04ee2d6d415b85acef8100000000830492506020015b662386f26fc100008310611d6257662386f26fc10000830492506010015b6305f5e1008310611d7a576305f5e100830492506008015b6127108310611d8e57612710830492506004015b60648310611da0576064830492506002015b600a83106104775760010192915050565b6040805160a08101825260008082526020820181905291810182905260608101829052608081019190915290565b828054611deb90612448565b90600052602060002090601f016020900481019282611e0d5760008555611e53565b82601f10611e2657805160ff1916838001178555611e53565b82800160010185558215611e53579182015b82811115611e53578251825591602001919060010190611e38565b50611e5f929150611e63565b5090565b5b80821115611e5f5760008155600101611e64565b600067ffffffffffffffff80841115611e9357611e936124b4565b604051601f8501601f19908116603f01168101908282118183101715611ebb57611ebb6124b4565b81604052809350858152868686011115611ed457600080fd5b858560208301376000602087830101525050509392505050565b80356001600160a01b0381168114611f0557600080fd5b919050565b600060208284031215611f1b578081fd5b610ebe82611eee565b60008060408385031215611f36578081fd5b611f3f83611eee565b9150611f4d60208401611eee565b90509250929050565b600080600060608486031215611f6a578081fd5b611f7384611eee565b9250611f8160208501611eee565b9150604084013590509250925092565b60008060008060808587031215611fa6578081fd5b611faf85611eee565b9350611fbd60208601611eee565b925060408501359150606085013567ffffffffffffffff811115611fdf578182fd5b8501601f81018713611fef578182fd5b611ffe87823560208401611e78565b91505092959194509250565b6000806040838503121561201c578182fd5b61202583611eee565b915060208301358015158114612039578182fd5b809150509250929050565b60008060408385031215612056578182fd5b61205f83611eee565b946020939093013593505050565b60006020828403121561207e578081fd5b8135610ebe816124ca565b60006020828403121561209a578081fd5b8151610ebe816124ca565b600080604083850312156120b7578182fd5b823567ffffffffffffffff8111156120cd578283fd5b8301601f810185136120dd578283fd5b6120ec85823560208401611e78565b95602094909401359450505050565b60006020828403121561210c578081fd5b5035919050565b60008060408385031215612125578182fd5b50508035926020909101359150565b6000815180845261214c81602086016020860161241c565b601f01601f19169290920160200192915050565b805182526020808201516001600160a01b039081169184019190915260408083015190911690830152606080820151908301526080908101511515910152565b600083516121b281846020880161241c565b8351908301906121c681836020880161241c565b01949350505050565b6001600160a01b038581168252841660208201526040810183905260806060820181905260009061220290830184612134565b9695505050505050565b6020808252825182820181905260009190848201906040850190845b8181101561224e5761223b838551612160565b9284019260a09290920191600101612228565b50909695505050505050565b602081526000610ebe6020830184612134565b6020808252602d908201527f4552433732313a2063616c6c6572206973206e6f7420746f6b656e206f776e6560408201526c1c881bdc88185c1c1c9bdd9959609a1b606082015260800190565b60208082526032908201527f4552433732313a207472616e7366657220746f206e6f6e20455243373231526560408201527131b2b4bb32b91034b6b83632b6b2b73a32b960711b606082015260800190565b60208082526025908201527f4552433732313a207472616e736665722066726f6d20696e636f72726563742060408201526437bbb732b960d91b606082015260800190565b6020808252602a908201527f4f6e6c79206974656d206f776e65722063616e20706572666f726d20746869736040820152691037b832b930ba34b7b760b11b606082015260800190565b60208082526024908201527f5072696365206d75737420626520657175616c20746f206c697374696e6720706040820152637269636560e01b606082015260800190565b60a081016104778284612160565b600082198211156124005761240061249e565b500190565b6000828210156124175761241761249e565b500390565b60005b8381101561243757818101518382015260200161241f565b83811115610ff75750506000910152565b600181811c9082168061245c57607f821691505b6020821081141561247d57634e487b7160e01b600052602260045260246000fd5b50919050565b60006000198214156124975761249761249e565b5060010190565b634e487b7160e01b600052601160045260246000fd5b634e487b7160e01b600052604160045260246000fd5b6001600160e01b03198116811461138757600080fdfea2646970667358221220668a98fb8055c5721636cfb2b75869698855eedfce858667e75e71856d54131964736f6c63430008040033",
  "linkReferences": {},
  "deployedLinkReferences": {}
}